:020000040800F2
:10000000D00D00203D05000841030008430300080F
:10001000470300084B0300084F03000800000000DE
:100020000000000000000000000000005303000872
:10003000550300080000000057030008590300089A
:100040005705000857050008570500085705000820
:100050005705000857050008570500085705000810
:100060005705000857050008570500085705000800
:1000700057050008570500085705000857050008F0
:1000800057050008570500085705000857050008E0
:1000900025470008570500085705000857050008C0
:1000A00057050008570500085705000857050008C0
:1000B000CD390008E5390008FD390008570500086A
:1000C00057050008570500085705000857050008A0
:1000D0005705000857050008B3280008A740000886
:1000E000A9610008570500085705000857050008D2
:1000F0005705000857050008570500085705000870
:100100005705000857050008153A0008570500086C
:10011000570500085705000857050008570500084F
:10012000570500085705000857050008570500083F
:1001300000F002F800F05FF80AA090E8000C82449A
:100140008344AAF10107DA4501D100F054F8AFF277
:10015000090EBAE80F0013F0010F18BFFB1A43F0A5
:10016000010318473CE600005CE600000A444FF03B
:10017000000C10F8013B13F0070408BF10F8014B06
:100180001D1108BF10F8015B641E05D010F8016B4B
:10019000641E01F8016BF9D113F0080F1EBF10F8AF
:1001A000014BAD1C0C1B09D16D1E58BF01F801CBD2
:1001B000FAD505E014F8016B01F8016B6D1EF9D555
:1001C0009142D6D37047000000230024002500266A
:1001D000103A28BF78C1FBD8520728BF30C148BFAA
:1001E0000B60704764290AF0B181002070471FB589
:1001F0001FBD10B510BD0AF079FB1146FFF7F7FFE0
:1002000000F00EF80AF097FB03B4FFF7F2FF03BC0F
:1002100002F09CFA30BF72B662B680F3088870476D
:1002200008B502F029FA012002F0D8FD02F044FEE0
:1002300002F074FE022002F0E7FC3748006818B9AB
:1002400001203649087002E000203449087003F0AC
:1002500092F84FF4FA3002F093FA4FF4165002F08D
:10026000DBFA4FF4E13003F0C4FE03F03BFA03F095
:100270009DFA03F0E5FA03F02DFB03F01FF903F0FC
:10028000E1FB09F00EF909F020F9002141F61F40C9
:1002900003F0C0F904F0E0FB04F0F0FD03F066FEAB
:1002A00000200623032202210090012003F0E4FF36
:1002B00030E01B48007820B909F0C1FE09F098FB36
:1002C00001E009F056FF04F0E4FA03F039FF0720DB
:1002D00004F0D1FC13490860082004F0CCFC12495A
:1002E0000860052004F0C7FC10490860062004F0EF
:1002F000C2FC0F49086004F09BFC0E490860012015
:100300000D49087000200D49087000BF0A480078A8
:100310000028FBD1CDE7000030812142660000209B
:1003200004000020C4000020C8000020CC000020F1
:10033000D0000020D40000206500002064000020D0
:10034000704700BFFEE700BFFEE700BFFEE700BF4B
:10035000FEE7704770477047704700000CB50020FB
:10036000019000906C48006840F480306A49086051
:1003700000BF6948006800F4003000900198401CFC
:100380000190009818B90198B0F5A06FF1D16248BA
:10039000006800F4003010B10120009001E000205E
:1003A00000900098012843D15C48006840F010009C
:1003B0005A4908600846006820F0030008600846B3
:1003C000006840F0020008605348406852494860A5
:1003D0000846406848600846406840F480604860CD
:1003E0000846406820F47C1048600846406840F4A5
:1003F000E81048600846006840F08070086000BF60
:100400004548006800F000700028F9D04248406874
:1004100020F00300404948600846406840F0020070
:10042000486000BF3C48406800F00C000828F9D143
:100430000CBD10B5FFF792FF10BD10B5364800682F
:1004400040F00100344908600846406834490840DB
:100450003149486008460068324908402E49086022
:100460000846006820F4802008600846406820F4B0
:10047000FE0048604FF41F008860FFF7DAFF4FF07E
:1004800000602949086010BD10B50021002000223D
:10049000214B5B6803F00C0121B1042906D0082927
:1004A00028D107E0214B224C236027E01F4B204C32
:1004B000236023E0184B5B6803F47010164B5B68F5
:1004C00003F48032022303EB904022B9194B4343DB
:1004D000174C23600DE0104B5B6803F4003323B12D
:1004E000144B4343124C236003E0104B4343104C26
:1004F000236003E00D4B0E4C236000BF00BF064B92
:100500005B68C3F303130C4CE15C094B1B68CB40E5
:10051000074C236010BD0000001002400020024084
:100520000000FFF8FFFFF6FE08ED00E000127A0081
:10053000D800002000093D00DC0000200948804769
:1005400009480047FEE7FEE7FEE7FEE7FEE7FEE7B5
:10055000FEE7FEE7FEE7FEE704480549054A064BCD
:10056000704700003B04000831010008D00700205C
:10057000D00D0020D0090020D009002031490143CE
:10058000314A1160704770B5002100230F22C478F2
:1005900004B32D4C246804F4E064C4F5E064210A3B
:1005A000C1F10403CA40447804FA03F1847814408A
:1005B00021430901254C0678A155047804F01F0554
:1005C0000124AC4005786D11AD0005F1E025C5F8BA
:1005D000004109E0047804F01F050124AC401C4DE3
:1005E0000678761145F8264070BD1A4A0A40024343
:1005F000154B1B1F1A60704739B1134A121D126840
:100600000243114B1B1D1A6006E00F4A121D1268AF
:1006100082430D4B1B1D1A607047042808D14FF010
:10062000E021096941F004014FF0E022116107E087
:100630004FF0E021096921F004014FF0E02211613F
:10064000704700000000FA050CED00E000E400E057
:1006500080E100E080FFFF1F10B50446FA488442A5
:1006600008D10121401500F0ABFE0021601500F01B
:10067000A7FE17E0F548844208D10121001500F0DB
:100680009FFE0021201500F09BFE0BE0F048844205
:1006900008D10121C80300F093FE00214FF400406F
:1006A00000F08EFE10BD30B50246002000235068D9
:1006B000E84C20400D790C6844EA05242043506042
:1006C0009068E54C2040D1E902542C434D7944EA2E
:1006D000450420439060D06A20F470000C7C641EB6
:1006E000E4B2234340EA0350D06230BD00210160F0
:1006F000017141718160C16001210174704721B1B4
:10070000826842F00102826003E0826822F0010206
:100710008260704721B1826842F48072826003E097
:10072000826822F480728260704710B50023CBB2D9
:100730001AB144681C43446002E044689C4344602E
:1007400010BD816841F008018160704701460020BA
:100750008A6802F008020AB1012000E00020704718
:10076000816841F0040181607047014600208A6879
:1007700002F004020AB1012000E00020704721B11C
:10078000826842F4A002826003E0826822F4A00240
:1007900082607047014600208A6802F480020AB134
:1007A000012000E00020704710B50A460021002318
:1007B000416821F46041531E41EA4331416010BD5C
:1007C00021B1426842F40062426003E0426822F4D0
:1007D000006242607047F0B504460D4600200021DB
:1007E000092D11DDE068A5F10A0606EB460707268C
:1007F00006FA07F18843A5F10A0606EB460603FA56
:1008000006F10843E0600CE0206905EB4507072688
:1008100006FA07F1884305EB450603FA06F108439B
:100820002061072A0FDA606B561E06EB86071F262B
:1008300006FA07F18843561E06EB860605FA06F10E
:100840000843606322E00D2A0FDA206BD61F06EB07
:1008500086071F2606FA07F18843D61F06EB860691
:1008600005FA06F10843206310E0E06AA2F10D06E4
:1008700006EB86071F2606FA07F18843A2F10D064C
:1008800006EB860605FA06F10843E062F0BD21B1E9
:10089000826842F48012826003E0826822F480124F
:1008A000826070470146C86C80B2704766484C3021
:1008B0000068704721B1426842F48062426003E000
:1008C000426822F480624260704721B1426842F47B
:1008D0008052426003E0426822F4805242607047D6
:1008E0000A460021816821F4E0411143816070478C
:1008F00021B1826842F40042826003E0826822F4FF
:1009000000428260704721B1826842F40212826024
:1009100003E0826822F402128260704701460020E0
:100920008A6802F400120AB1012000E0002070473A
:10093000F0B504461546002000220026092911DDE5
:10094000E068A1F10A0707EB470C072707FA0CF24A
:100950009043A1F10A0707EB470703FA07F2104398
:10096000E0600CE0206901EB410C072707FA0CF26C
:10097000904301EB410703FA07F210432061A06B9B
:10098000C0F30156EF1C06F1010CA7EB0C0707EBB7
:10099000870C1F2707FA0CF29043EF1C06F1010C9D
:1009A000A7EB0C0707EB870701FA07F21043A063D8
:1009B000F0BD10B50A4600210023816B21F44011DF
:1009C000531E41EA0351816310BD08B50023009313
:1009D0000090009B0B440093009B1A6008BD08B573
:1009E000024600200090009201F12800009B18446C
:1009F00000900098006880B208BD0A460021416856
:100A0000164B194011434160704741628262704742
:100A10000A460021416821F01F01114341607047DF
:100A200040B109490831096841F40001064A083219
:100A3000116007E004490831096821F40001024A05
:100A40000832116070470000002401400028014076
:100A5000003C0140FFFEF0FFFDF7F1FFFFFD3FFF0F
:100A60000246002013680B400BB1012000E000207B
:100A70007047CA430260704770B5024600200023E9
:100A800000240B125568CEB205EA060415681D4015
:100A900015B10CB1012000E0002070BD00220A1247
:100AA000D34303607047000010B5012000F0A2FCA2
:100AB000002000F09FFC10BD2A49086070472949BA
:100AC000091F086070472749843108607047014654
:100AD0000020254A10884FF67F4210400843224AE2
:100AE00010807047014600201F4A10884FF6807220
:100AF000104008431C4A1080704708B5002200923D
:100B0000194A2C3A0092009A02440092009A11600D
:100B100008BD08B501460020009013482C3800900D
:100B20000098084400900098008808BD0D489C304B
:100B30000068C0B270470C480830008840F00100DF
:100B400009490831088070470648A0300068C0B2E3
:100B5000704705480830008840F00200024908311B
:100B60000880704704860D422C6C004000204449E8
:100B70000860091D0860091D0860091D08604148DA
:100B80003F4914310860704700213D498279002AAD
:100B90003AD00A46126803689A430B461A600A1D47
:100BA000126803689A430B1D1A60027911440A689F
:100BB00003681A430A60324A0832126803689A438B
:100BC0002F4B08331A601A1D126803689A432C4B86
:100BD0000C331A604279102A0ED11A1F126803686A
:100BE0001A43274B08331A601A1D126803681A4308
:100BF000234B0C331A600DE02149427911440A68F5
:100C000003681A430A6005E0027911440A68036820
:100C10009A430A6070470021016001710C21417103
:100C20000021817170471649103109680143144A47
:100C300010321160704701460020114A14321268C8
:100C40000A400AB1012000E0002070470C4914312D
:100C500008607047014600200022094B1B6803EA28
:100C60000102074B14331B680B4013B10AB101207A
:100C700000E000207047024914310860704700000E
:100C800000040140FFFF0F0010B50446CC48844229
:100C900008D10121042000F093FB0021042000F082
:100CA0008FFB46E0C748844208D10121082000F0AC
:100CB00087FB0021082000F083FB3AE0C248844211
:100CC00008D10121102000F07BFB0021102000F052
:100CD00077FB2EE0BD48844208D10121202000F09E
:100CE0006FFB0021202000F06BFB22E0B84884421B
:100CF00008D10121402000F063FB0021402000F0DA
:100D00005FFB16E0B348844208D10121802000F047
:100D100057FB0021802000F053FB0AE0AE488442DC
:100D200007D10121801500F04BFB0021A01500F038
:100D300047FB10BD10B50121084600F041FB002122
:100D4000012000F03DFB10BD2DE9F04102460025D9
:100D50000026002000230024002791F803C00CF097
:100D60000F0591F803C00CF0100CBCF1000F03D07C
:100D700091F802C04CEA050591F800C0BCF1000FE3
:100D800031D0146800202BE04FF0010C0CFA00F376
:100D9000B1F800C00CEA03069E4220D183004FF058
:100DA0000F0C0CFA03F7BC4305FA03FC4CEA0404ED
:100DB00091F803C0BCF1280F06D14FF0010C0CFADA
:100DC00000FCC2F814C00AE091F803C0BCF1480F5F
:100DD00005D14FF0010C0CFA00FCC2F810C0401C09
:100DE0000828D1D31460B1F800C0BCF1FF0F34DD86
:100DF000546800202EE000F1080C4FF0010808FABA
:100E00000CF3B1F800C00CEA03069E4221D1830026
:100E10004FF00F0C0CFA03F7BC4305FA03FC4CEA45
:100E2000040491F803C0BCF1280F05D100F1080CAF
:100E300008FA0CF8C2F8148091F803C0BCF1480F0E
:100E400007D100F1080C4FF0010808FA0CF8C2F8BD
:100E50001080401C0828CED35460BDE8F0814FF6C6
:100E6000FF710180022181700421C1707047024628
:100E7000002093680B400BB1012000E00020704778
:100E80000146886880B2704702460020D3680B4054
:100E90000BB1012000E0002070470146C86880B215
:100EA000704701617047416170470AB1016100E01C
:100EB00041617047C16070474FF480320A438261DC
:100EC0008161826182698269704702460020434BDA
:100ED00018684FF68073184040EA021008433F4BF1
:100EE000186070473E49C8617047F0B50A46002354
:100EF00000240021002500F00046B6F1004F02D189
:100F0000364EF16901E0354E7168C0F3034583B296
:100F100000F44016B6F5401F08D121F070612F4E45
:100F2000766826F070662D4F7E6012E000F4801621
:100F3000B6F5801F06D1032606FA05F4A14341F059
:100F4000706106E0460D360103FA06F6B14341F042
:100F5000706122B1460D360103FA06F6314300F006
:100F60000046B6F1004F02D11C4EF16101E01B4E6C
:100F70007160F0BD30B500228B071C0F0F2303FA00
:100F800004F2164B08338C1053F824309343134C5F
:100F900008348D1044F8253023468C1053F8243043
:100FA0008C07240F00FA04F423430C4C08348D10F2
:100FB00044F8253030BD0A49DC3108607047000034
:100FC00000080140000C01400010014000140140E5
:100FD00000180140001C01400020014000000140B9
:100FE0000000204210B50121080700F0F6F90021A9
:100FF0004FF0805000F0F1F910BD2A4908627047A7
:1010000028490861704701460020274A106820F0EF
:10101000E0000843106070472249A0310860704723
:1010200010B502460020204B186820F00300104342
:1010300018601E4B1B6843F004031C4C23600129FD
:1010400001D130BF00E020BF184B1B6823F0040320
:10105000164C236010BD1448006840F0040012498B
:1010600008600846006840F0020008600F48006809
:1010700040F004000D49086000BF00BF30BF70475A
:1010800001460020084A52680A400AB1012000E0E7
:10109000002070470449096841EA8001024A116052
:1010A0007047000000000E420070004010ED00E0AC
:1010B000DF48006840F00100DD49086008464068EC
:1010C000DC490840DA49486008460068DA490840C7
:1010D000D74908600846006820F480200860084668
:1010E000406820F4FE0048604FF41F00886070479D
:1010F000CF49096821F48031CD4A11601146096851
:1011000021F480211160B0F5803F03D0B0F5802F2D
:101110000ED106E0C649096841F48031C44A116025
:1011200007E0C349096841F4A021C14A116000E009
:1011300000BF00BF704710B5014600220023002009
:101140004A11012A02D1BA4C236806E0022A02D1D0
:10115000B74C236A01E0B64C636A01F01F02012418
:1011600094401C400CB1012000E0002010BD38B5B7
:10117000002000900024002500BF3120FFF7DBFF96
:1011800005460098401C00900098B0F5A06F01D073
:10119000002DF2D03120FFF7CEFF08B1012400E08E
:1011A0000024204638BD01460020A14A106820F0E6
:1011B000F80040EAC10010607047A049086070471D
:1011C000024600209A4B586820F47C1042EA010342
:1011D0001843974B58607047984908667047014616
:1011E0000020934A506820F0030008435060704785
:1011F0008F48406800F00C007047014600208C4A80
:10120000506820F0F000084350607047014600200D
:10121000874A506820F4E0600843506070470146F8
:101220000020834A506820F4605040EAC1005060BA
:10123000704729B17E4A527A02437D4B5A7204E0CC
:101240007B4A527A82437A4B5A7270477B49D83133
:101250000860704701460020754A506820F44040FD
:101260000843506070470021714A20321170704A63
:1012700082F82010012802D004280AD104E00121BC
:101280006B4A2032117005E00521694A2032117045
:1012900000E000BF00BF70476949086070476449BB
:1012A000096A0143624A116270476549443908601E
:1012B000704730B500210022002400235C4D6D688A
:1012C00005F00C0121B1042905D0082923D105E03E
:1012D0005C4D056022E05B4D05601FE0544D6D687C
:1012E00005F47012524D6D6805F48034022505EB4B
:1012F00092421CB9544D554305600BE04C4D6D684E
:1013000005F400351DB1504D5543056002E04D4DCB
:101310005543056002E04B4D056000BF00BF444DE2
:101320006D6805F0F0010909484D6B5C0568DD400A
:1013300045603F4D6D6805F4E061090A434D6B5C03
:101340004568DD4085603A4D6D6805F46051C90A15
:101350003E4D6B5C4568DD40C560354D6D6805F4FC
:101360004041890B3A4D6B5CC568B5FBF3F50561EF
:1013700030BD29B12E4A526902432D4B5A6104E017
:101380002B4A526982432A4B5A61704729B1284A35
:1013900092690243264B9A6104E0254A926982438E
:1013A000234B9A61704729B1214AD2690243204BED
:1013B000DA6104E01E4AD26982431D4BDA6170474C
:1013C00029B11B4AD2680243194BDA6004E0184A7B
:1013D000D2688243164BDA60704729B1144A126909
:1013E0000243134B1A6104E0114A12698243104B05
:1013F0001A61704712494039086070470F49C86444
:1014000070470B49C87170470948406A40F08070C6
:1014100007494862704701460020054A92680A4021
:101420000AB1012000E0002070470149887270472E
:10143000001002400000FFF8FFFFF6FE00004242ED
:101440008004424200127A0000093D00EC000020B6
:10145000FC00002010B50446FE48844208D101215A
:10146000C014FFF7ADFF0021E014FFF7A9FFC4E0AF
:10147000B4F1804F08D101210846FFF7AEFF0021EB
:101480000120FFF7AAFFB8E0F348844208D1012108
:101490000220FFF7A2FF00210220FFF79EFFACE031
:1014A000EE48844208D101210420FFF796FF002175
:1014B0000420FFF792FFA0E0E948844208D101210F
:1014C0000820FFF78AFF00210820FFF786FF94E03D
:1014D000E448844208D101211020FFF77EFF00215B
:1014E0001020FFF77AFF88E0DF48844208D101210D
:1014F0002020FFF772FF00212020FFF76EFF7CE025
:10150000DA48844208D101214014FFF759FF002135
:101510006014FFF755FF70E0D548844209D10121DE
:10152000C804FFF74DFF00214FF40020FFF748FFEC
:1015300063E0D048844209D101210805FFF740FF4C
:1015400000214FF48010FFF73BFF56E0CA48844269
:1015500009D101214805FFF733FF00214FF40010A6
:10156000FFF72EFF49E0C548844208D10121402001
:10157000FFF733FF00214020FFF72FFF3DE0C04879
:10158000844208D101218020FFF727FF002180201D
:10159000FFF723FF31E0BB48844208D101218015C9
:1015A000FFF71BFF0021A015FFF717FF25E0B64846
:1015B000844209D101210804FFF702FF00214FF402
:1015C0008030FFF7FDFE18E0B048844209D10121C8
:1015D0004804FFF7F5FE00214FF40030FFF7F0FE5E
:1015E0000BE0AB48844208D101218804FFF7E8FEF4
:1015F00000214FF48020FFF7E3FE10BD0022028897
:10160000944B98420ED0994B98420BD0B0F1804F3A
:1016100008D0914B984205D0904B984202D0904B05
:10162000984204D14FF68F731A404B881A438D4B62
:10163000984207D08C4B984204D04FF6FF431A4093
:10164000CB881A4302808B8883850B880385814B66
:1016500098420BD0854B984208D08B4B984205D0CE
:101660008A4B984202D08A4B984201D10B7A03866A
:1016700001238382704770B5002400220023058C6B
:101680004FF6FE7635400584028C8388048B4FF636
:101690008F752C40B51E2C400D882C43751E2A409A
:1016A0000D892A434D882A436A4DA8420BD06F4DBD
:1016B000A84208D0744DA84205D0744DA84202D06B
:1016C000734DA84213D14FF6F7752A404D892A432E
:1016D0004FF6FB752A408D882A434FF6FF652B4055
:1016E0004FF6FF552B408D892B43CD892B438380AB
:1016F0000483CD888586028470BD70B500240022E5
:101700000023058C4FF6EF7635400584028C8388E4
:10171000048B48F6FF752C404FF6FF452C400D8892
:101720004FF6FF7606EA05252C434FF6DF752A4073
:101730000D8906EA05152A434D8806EA05152A4350
:10174000444DA84202D0494DA8421DD14FF67F75A5
:101750002A404D894FF6FF7606EA05152A434FF6D3
:10176000BF752A408D8806EA05152A434FF6FF35D6
:101770002B404FF2FF752B408D8906EA85052B43E0
:10178000CD8906EA85052B4383800483CD880587B0
:10179000028470BD70B5002400220023058C4FF632
:1017A000FF6635400584028C8388848B4FF68F75E5
:1017B0002C404FF6FC752C400D882C434FF6FF55FE
:1017C0002A400D894FF6FF7606EA05252A434D8803
:1017D00006EA05252A431F4DA84202D0234DA84200
:1017E0001DD14FF2FF752A404D894FF6FF7606EA6C
:1017F00005252A434FF6FF352A408D8806EA052540
:101800002A434EF6FF752B404DF6FF752B408D8910
:1018100006EA05152B43CD8906EA05152B4383807F
:101820008483CD888587028470BD70B50022002333
:101830000024058C4EF6FF7635400584038C8488A1
:10184000828B48F6FF752A404FF6FF452A400D88E7
:1018500020E00000002C014000040040000800408F
:10186000000C004000100040001400400034014013
:10187000004C01400050014000540140001800405D
:10188000001C004000200040004001400044014096
:10189000004801404FF6FF7606EA05252A434DF63B
:1018A000FF752B400D8906EA05352B434D8806EA66
:1018B00005352B43FA4DA84202D0FA4DA84208D173
:1018C0004BF6FF752C408D894FF6FF7606EA85159D
:1018D0002C4384808283CD88A0F84050038470BD5F
:1018E000828B4FF2FF331A408283828B4FF6FF7355
:1018F00003EA01231A4382837047F0B50C4615466C
:10190000002200210026078C4EF6FF7C07EA0C0718
:101910000784828B018C4FF6FF7707EA043640F686
:10192000FF473A404FF6FF7707EA05273A434FF65D
:10193000FF7707EA03373A43D94FB8420ED0D94F61
:10194000B8420BD0B0F1804F08D0D74FB84205D085
:10195000D64FB84202D0D64FB84206D14DF6FF77E7
:10196000394046F48057394305E047F6FF57394080
:1019700044F48057394382830184F0BD828B4FF653
:10198000F3731A408283828B0A4382837047F0B5D7
:101990000C461546002200210026078C4FF6FF6CEE
:1019A00007EA0C070784828B018C4FF6FF7707EA62
:1019B00004264FF60C773A404FF6FF7707EA0317F5
:1019C0002F433A43B64FB8420ED0B64FB8420BD071
:1019D000B0F1804F08D0B44FB84205D0B34FB842F1
:1019E00002D0B34FB84206D14FF6FF57394046F404
:1019F0008077394305E04FF2FF57394044F4807750
:101A0000394382830184F0BD028B4FF2FF331A40C9
:101A10000283028B4FF6FF7303EA01231A4302830A
:101A20007047F0B50C461546002200210026078CB1
:101A30004FF6EF7C07EA0C070784028B018C4FF608
:101A4000FF7707EA041640F6FF473A404FF6FF7764
:101A500007EA03373A434FF6FF7707EA05273A4389
:101A60008F4FB8420ED08F4FB8420BD0B0F1804F9D
:101A700008D08D4FB84205D08C4FB84202D08C4F61
:101A8000B84206D14FF6DF77394046F010073943A8
:101A900005E04FF65F77394044F010073943028381
:101AA0000184F0BD028B4FF6F3731A400283028B60
:101AB0000A4302837047F0B50C4615460022002108
:101AC000068C4FF6FE773E400684028B018C4FF663
:101AD0000C7632407E1C06EA03162E433243704ECB
:101AE000B0420ED06F4EB0420BD0B0F1804F08D054
:101AF0006D4EB04205D06D4EB04202D06C4EB04239
:101B000006D14FF6FD76314044F00106314305E041
:101B10004FF6F576314044F00106314302830184EB
:101B2000F0BD70B505460C465D4885420ED05D4857
:101B300085420BD0B5F1804F08D05B48854205D077
:101B40005A48854202D05A48854200D100E000BF81
:101B5000208850B92389A28861882846FFF7ABFF07
:101B6000E1882846FFF79EFF25E0208804280AD157
:101B70002389A28861882846FFF753FFE188284619
:101B8000FFF742FF17E0208808280AD12389A2889E
:101B900061882846FFF7FBFEE1882846FFF7EEFE46
:101BA00009E02389A28861882846FFF7A6FEE1881C
:101BB0002846FFF795FE70BD2DE9F04105460C461D
:101BC00000260127608808B9022600E00026A088C8
:101BD000012801D1022700E001272088A0B923892C
:101BE000A28861882846FFF766FFE1882846FFF74C
:101BF00059FF23893A4631462846FFF712FFE1880C
:101C00002846FFF701FF13E02389A2886188284650
:101C1000FFF707FFE1882846FFF7F6FE23893A46DB
:101C200031462846FFF747FFE1882846FFF73AFF8D
:101C3000BDE8F0810A884B881A438B881A43CB8809
:101C40001A430B891A434B891A438B891A43A0F80C
:101C5000442070474FF6FF71818000210180C180D0
:101C60004180017270470021018041808180C180E4
:101C7000018141818181C1817047002101804180C2
:101C8000012181800021C1800181704700210180F4
:101C900041808180C1800181418181817047000044
:101CA000002C0140003401400004004000080040C6
:101CB000000C004021B1028842F00102028004E0E1
:101CC00002884FF6FE731A400280704731B1B0F8B7
:101CD000442042F40042A0F8442005E0B0F844203B
:101CE000C2F30E02A0F8442070471AB183890B4357
:101CF000838102E083898B438381704781827047AF
:101D000041EA0203A0F8483070471AB183890B43B7
:101D1000838102E083898B438381704701894FF679
:101D2000F8721140018170470A46002101894FF67F
:101D30008F73194011430181704730B504460D4639
:101D400029462046FFF7F0FF208940F00700208158
:101D500030BD2DE9F04104460D4616461F46602D64
:101D600006D13B46012231462046FFF75AFE05E0E8
:101D70003B46012231462046FFF79DFE294620467C
:101D8000FFF7D2FF208940F007002081BDE8F081F5
:101D900030B50C4600210189C9B24FF6FF7505EA3E
:101DA0000325154325432943018130BD2DE9F04129
:101DB00005460E4617469846002443463A463146A5
:101DC0002846FFF7E5FF2C894FF6F870044044F0F1
:101DD00007044FF68F70044044F070042C81BDE876
:101DE000F081F0B504460D4616461F463B46324686
:101DF00029462046FFF7CCFF208940F4804020810F
:101E0000F0BD0185828270470A46002101884FF6A5
:101E10008F731940114301807047F0B50C46154689
:101E20001E460021002200230189028B038C4FF6FD
:101E3000F877394021434FF6FC473A4040F201170A
:101E40003A434FF6DD773B404FF6FF7707EA061738
:101E50002F433B43018102830384F0BD0A460021E6
:101E6000018B4FF68F7319401143018370470A4667
:101E70000021018B48F6FF7319404FF6FF7303EA08
:101E800002231943018370470A460021818B4FF6D4
:101E90008F7319401143818370470A460021818B5B
:101EA00048F6FF7319404FF6FF7303EA0223194304
:101EB0008183704721B1028842F08002028004E0F1
:101EC00002884FF67F731A400280704721B18288E2
:101ED00042F00402828004E082884FF6FB731A40CD
:101EE0008280704721B1828842F00802828004E03B
:101EF00082884FF6F7731A408280704721B182883A
:101F000042F00102828004E082884FF6FE731A409C
:101F1000828070470A460021018B4FF6F773194003
:101F20001143018370470A460021018B4FF2FF7372
:101F300019404FF6FF7303EA0223194301837047E8
:101F40000A460021818B4FF6F773194011438183B4
:101F500070470A460021818B4FF2FF7319404FF6FC
:101F6000FF7303EA02231943818370470A46002165
:101F7000018B4FF6FB7319401143018370470A46EA
:101F80000021018B4FF6FF3319404FF6FF7303EA30
:101F900002231943018370470A460021818B4FF6C3
:101FA000FB7319401143818370470A460021818BDE
:101FB0004FF6FF3319404FF6FF7303EA022319432C
:101FC000818370470A460021018B4FF67F731940C9
:101FD0001143018370470A460021018BC1F30E01B2
:101FE0004FF6FF7303EA02231943018370470A4641
:101FF0000021818B4FF67F73194011438183704715
:102000000A460021818BC1F30E014FF6FF7303EAEC
:1020100002231943818370470A460021018C4FF641
:10202000FD7319401143018470470A460021018C59
:102030004FF6F77319401143018470470A46002197
:10204000018C4FF6DF7319404FF6FF7303EA02135A
:102050001943018470470A460021018C4FF67F73B3
:1020600019404FF6FF7303EA0213194301847047C6
:102070000A460021018C4FF6FF5319404FF6FF73BB
:1020800003EA02231943018470470A460021018CA8
:102090004FF2FF7319404FF6FF7303EA022319430F
:1020A000018470470A460021018C4DF6FF731940E8
:1020B0004FF6FF7303EA023319430184704730B5CA
:1020C000002301248C40A3B2048C9C430484048C20
:1020D00002FA01F5ADB22C43048430BD30B50023C3
:1020E00004248C40A3B2048C9C430484048C02FA24
:1020F00001F5ADB22C43048430BD70B50346002019
:1021000000241846183001258D40ACB21D8CA54323
:102110001D8409B1082909D100EB6100056825F08B
:10212000700505600568154305600EE00D1FC5F3D9
:102130004E052844056825F4E045056005684FF61E
:10214000FF7606EA02263543056070BD21B102889C
:1021500042F00202028004E002884FF6FD731A404A
:102160000280704721B1028842F00402028004E03C
:1021700002884FF6FB731A400280704721B18288B3
:1021800042F08002828004E082884FF67F731A401A
:102190008280704702884FF6F7731A4002800288E7
:1021A0000A430280704782884FF68F731A408280FC
:1021B00082880A438280704702894FF6F8731A407A
:1021C000028102890A430281704702894FF67F73B8
:1021D0001A40028102890A43028170478184704754
:1021E0008185704781867047018770478187704776
:1021F000A0F84010704702884FF6FF431A40028053
:1022000002880A43028070470146888E7047014663
:10221000088F70470146888F70470146B1F840002B
:1022200070470146888C70470146088D704702460A
:102230000020138A0B400BB1012000E00020704702
:10224000CA430282704730B50246002000230024B2
:10225000158A05EA0103958905EA010413B10CB159
:10226000012000E0002030BDCA4302827047000018
:1022700010B50446FB48844209D101218803FFF7C9
:102280009FF800214FF48040FFF79AF832E0F648BB
:10229000844209D101214804FFF79FF800214FF43F
:1022A0000030FFF79AF825E0F048844209D1012177
:1022B0008804FFF792F800214FF48020FFF78DF893
:1022C00018E0EB48844209D10121C804FFF785F8E2
:1022D00000214FF40020FFF780F80BE0E54884422E
:1022E00008D101210805FFF778F800214FF480108C
:1022F000FFF773F810BD2DE9F04786B005460E468E
:102300000024A24600BFA1460027B08900B100BF4B
:102310002F462C8A4CF6FF700440F08804432C8230
:10232000AC894EF6F3100440B088318908437189B6
:1023300008430443AC81AC8A4FF6FF400440B089A7
:102340000443AC8201A8FEF7B4FFC648874202D11D
:10235000DDF810A001E0DDF80CA0A88900F4004031
:1023600040B10AEBCA0000EB0A1031684900B0FB2B
:10237000F1F807E00AEBCA0000EB0A1031688900A7
:10238000B0FBF1F86420B8FBF0F0040120096421EF
:1023900001FB1089A88900F4004040B1322000EB15
:1023A000C900B0FBF1F000F00700044308E0322060
:1023B00000EB09106421B0FBF1F000F00F000443C2
:1023C0002C8106B0BDE8F0874FF416510160002162
:1023D0008180C18001810C21418100218181704770
:1023E00010B502460020108A4FF2FF0318400B88F8
:1023F0004C8823438C882343CC8823431843108282
:1024000010BD0021018041808180C180704721B1D1
:10241000828942F40052828104E082894DF6FF7382
:102420001A4082817047F0B503460024002600253B
:10243000002040F66A17B94200D100BF1846C1F328
:10244000421401F01F06012707FA06F5012C01D1FD
:102450000C3004E0022C01D1103000E014301AB12D
:1024600007682F43076002E00768AF430760F0BDCD
:102470001AB1838A0B43838202E0838A8B4383826F
:102480007047028A4FF6F0731A400282028A0A43AA
:102490000282704782894FF2FF731A4082818289DB
:1024A0000A438281704721B1828942F0020282810F
:1024B00004E082894FF6FD731A4082817047028AD8
:1024C0004FF6DF731A400282028A0A430282704783
:1024D00021B1028A42F48042028204E0028A4BF671
:1024E000FF731A4002827047C1F30802828070476E
:1024F00001468888C0F308007047818941F00101D6
:1025000081817047028BD2B20283028B42EA0122A0
:1025100002837047028B02F47F420283028B0A43DC
:102520000283704721B1828A42F02002828204E055
:10253000828A4FF6DF731A408282704721B1828A05
:1025400042F01002828204E0828A4FF6EF731A4052
:102550008282704721B1828A42F00802828204E0BE
:10256000828A4FF6F7731A408282704721B18289BE
:1025700042F40042828103E08289C2F30E0282812A
:10258000704721B1828A42F40062828204E0828A2A
:102590004FF2FF731A4082827047828A4FF6FB73B4
:1025A0001A408282828A0A438282704721B1828ADB
:1025B00042F00202828204E0828A4FF6FD731A40E2
:1025C0008282704702460020B1F5007F00D100BF33
:1025D00013880B400BB1012000E00020704701F48C
:1025E0000072B2F5007F00D100BFCA43028070477D
:1025F00070B50246002400230025002040F66A162C
:10260000B14200D100BFC1F3421501F01F03012602
:1026100006FA03F3012D02D19689334006E0022D1C
:1026200002D1168A334001E0968A33400C1201260B
:1026300006FA04F41688344013B10CB1012000E00E
:10264000002070BD10B50022002340F66A14A1429C
:1026500000D100BF0A1201249440A3B2DC430480DD
:1026600010BD000000380140004400400048004018
:10267000004C00400050004010B56FF00400FDF722
:10268000CCFF2E4800682E49B0FBF1F02D490870B0
:102690000846007800EB4001C1EBC0104FF6FF7117
:1026A00001EAC0002849088010BD0146254A127879
:1026B0004A434FF0E0235A6100229A611A46126998
:1026C00042F001021A6100BF4FF0E022106900F0F1
:1026D00001021AB100F48032002AF5D04FF0E02256
:1026E000126922F001024FF0E0231A6100229A6180
:1026F00070470146144A12884A434FF0E0235A615A
:1027000000229A611A46126942F001021A6100BF62
:102710004FF0E022106900F001021AB100F480329B
:10272000002AF5D04FF0E022126922F001024FF0AA
:10273000E0231A6100229A6170470000D80000204F
:1027400000127A000001002002010020014600BFB3
:10275000704700BFF94A128802F04002002AF9D0FF
:10276000C2B2F64B1B1D1A807047F549088000BFA6
:10277000F349091F098801F040010029F8D070478A
:1027800010B586B00446012144F20400FEF7FEFDB8
:102790004FF40070ADF8140003208DF816001820D7
:1027A0008DF8170005A9E748FEF7CEFA4FF48060D0
:1027B000ADF8140004208DF8170005A9E148FEF7D4
:1027C000C3FA01940020ADF80800ADF80A00ADF896
:1027D0000C00ADF810000C20ADF80E0001A9D8488F
:1027E000001FFFF788FD002240F22551D448001F4A
:1027F000FFF719FE0121D248001FFFF708FE06B0BF
:1028000010BDCE49091D088000BFCC49098801F0E0
:1028100040010029F9D0704710B586B00446012167
:102820000420FEF7B3FD01214804FEF7BCFD04209F
:10283000ADF8140003208DF8160018208DF817004D
:1028400005A9C048FEF780FA0820ADF8140004205E
:102850008DF8170005A9BB48FEF776FA26208DF8FB
:10286000000000208DF8010001208DF802008DF895
:1028700003006846FDF787FE01940020ADF80800CC
:10288000ADF80A00ADF80C00ADF810000C20ADF862
:102890000E0001A9A948FFF72EFD012240F22551A3
:1028A000A648FFF7C0FD0121A448FFF7B0FD06B020
:1028B00010BD2DE9FF5F40F22551A048FFF798FEBB
:1028C00000287AD09D48001D00889F49086008466E
:1028D00000684B2803D101209C4908701EE09A48EB
:1028E0000068492803D0984800684A2803D100208E
:1028F0009649087012E09448006831280EDB92482F
:10290000006835280ADC0220904908708E4800686B
:10291000303800EB400040008D4908608D48007859
:1029200000284ED189480078D0B9874800684128EE
:1029300009DB85480068482805DC83480078403872
:10294000854908703DE080480068082804DC7E481E
:1029500000788149087034E000207F49087030E039
:102960007A48007801282CD177480068432806D19E
:1029700000207A4908700120794908700FE07248F8
:102980000068472806D10120744908700020744966
:10299000087004E0002071490870714908706A48A5
:1029A0000068412803D068480068452806D1664879
:1029B000007840386849087003E094E000206649D8
:1029C0000870614800687B2802D1012065490870C1
:1029D0005D4800687D2802D1022062490870614884
:1029E000007801280AD1584800785F495F4A127878
:1029F00088545E480078401C5C490870594800784B
:102A0000022870D15848C078502803D10120584975
:102A1000087081E05448C078572803D101205549F7
:102A2000087079E050484078232875D04F480078E6
:102A30005149087034E04D4909784F4A1278881A94
:102A400009F0D9FA804642460B4600204B4908F06F
:102A50000FFB04460D4648490978491E424A515C1D
:102A6000A1F1300009F0C7FA064622462B4609F0CC
:102A700029FB82468B464248006809F033FE5246E5
:102A80005B46CDE9000109F037F8CDE9020109F014
:102A900001F83B49086038480078401E3649087004
:102AA000354800780428C6DA2F484078303809289D
:102AB00031D2DFE800F0050C13191E23282E2F0059
:102AC0002F48006809F09EFF2149086023E02C4848
:102AD000006809F097FF2B4908601CE0284800684F
:102AE0002949086017E024E0254800682749086064
:102AF00011E023480068264908600CE0204800687F
:102B00002449086007E01E4800682349086002E085
:102B100002E000E000BF00BF002012490870134926
:102B20000870154908701649086032210E4807F0F0
:102B30007DFD002004B0BDE8F09F0000004400408F
:102B40000438014000080140080100208D000020E9
:102B5000BC000020660000200200002000000020D1
:102B6000010000200C010020680200200D0100205F
:102B70007B0000207C0000200E010020000024408B
:102B800010010020C0000020A8000020AC000020A0
:102B9000B0000020B4000020B800002015480078E4
:102BA000F8B1154800685A281BD00020114A10704F
:102BB00011480068012806DB0F480068082802DC7D
:102BC0000D4801780BE00C480068412807DB0A48F3
:102BD0000068482803DC084800784038C1B208463D
:102BE0007047054800685A2802D10120014A107038
:102BF0000020F5E71401002008010020A34A0A4044
:102C00000243A34B1A6070470146072323EA0102DF
:102C100012029F4B1B1D18684FF6FF0318409D4B77
:102C2000184310439A4B1B1D186070472DE9F04163
:102C30000746884614461D462846FFF7E5FFC5F1BE
:102C4000040007FA00F60F20284100EA08000643B6
:102C500006F00F06E21704EBD2625211920002F165
:102C6000E022D2F800212146E31704EBD3635B1185
:102C7000A4EB431C012303FA0CF31A432046E31789
:102C800004EBD3635B119B0003F1E023C3F8002145
:102C90008148005D40EA06107F490855BDE8F08193
:102CA00070B504460B46CE1701EB9676C6F3870047
:102CB000CE1701EB9676B610A1EB8606B606350E5A
:102CC000764B9B6943F00103744EB3614FEAB63310
:102CD00053F820300F26AE40B343714E46F82030F3
:102CE000334653F8203004FA05F61E436C4B43F884
:102CF00020606C4B1B6801268E403343694E336065
:102D000002F0010343B1674B0C331B6801268E4070
:102D10003343644E0C36336002F0020343B1614B1F
:102D200008331E6801238B401E435E4B08331E6030
:102D300070BD00B5002059490861C8601420486181
:102D400000208861C8610846006840F00100086002
:102D500008464068544908405049486008460068A1
:102D6000524908404D4908600846006820F4802018
:102D700008600846406820F4FE0048600020886033
:102D800000214FF00060FFF739FF00BD10B540484B
:102D90000830006840F004003D49083108603F48B1
:102DA000C06940F080503D49C8614148406840F4E6
:102DB00080703F4948600846006840F004000860A1
:102DC0000846006840F002000860FDF723FA10BDD5
:102DD0003048001D2E49091D08607047014649060C
:102DE0002E4A926942F001022C4B9A612C4A083A11
:102DF000526822F0E0622A4B083B5A601A46526839
:102E00000A435A60704730B504460025FFF791FF2A
:102E10002248006840F480302049086000BF1F4805
:102E20000068400C0028FAD04FF480601B494860CD
:102E3000A01EC4B20846406840EA84404860084684
:102E4000406840F4803048601A48006840F0320022
:102E5000184908601148006840F080700F49086008
:102E600000BF0E480068400E0028FAD00B484068AA
:102E700040F002000949486005E008484068C0F396
:102E8000870505F00305022DF7D130BD80FFFF1F38
:102E900008ED00E00000FA0500E400E00010024048
:102EA00008000140000401400000FFF8FFFFF6FEAB
:102EB000007000400020024008B501210820FEF704
:102EC00065FA4FF40050ADF8000010208DF80300B3
:102ED00003208DF8020069460C48FDF735FF08BD58
:102EE00018B900210A4A11600FE00A490968491C13
:102EF000084A1160814208D105490968C943064A58
:102F0000C2F8B4110021034A11607047000C01405F
:102F1000B4812142180100200080214208B501211E
:102F20000820FEF733FA4FF4A040ADF80000482027
:102F30008DF8030069464B48FDF706FF08BD0146C2
:102F40004948006828B949480088401C474A108011
:102F500002E00020454A10804348006828B94448F0
:102F6000007810B90120424A107042480078B0B988
:102F70003F480078012807D13F480078401C3E4A6E
:102F8000107001203B4A10703B480078022806D19F
:102F90000020394A1070394A1080022070473248A8
:102FA0000068012804D10020314A1070314A1070A5
:102FB0003148007801281CD130480088401C2F4A35
:102FC00010801046008888420ADD28480088884220
:102FD00006DA0020284A1070284A10800120DDE718
:102FE00022480088884204DD0020234A1070234ACA
:102FF00010800020D2E72248007838B11A480068D3
:1030000020B900201E49087001207047164800684A
:10301000012801D11A4908700020F6E719480088F4
:1030200040B91148006828B917480088401C164963
:10303000088002E000201449088013480088C8284E
:1030400007DD01200F49088000200F49088001207A
:1030500070470C480088012802D1002009490880E7
:103060000020F5E7000C01403881214222010020B8
:103070001C0100201D0100201E0100202001002055
:1030800024010020280100202601002010B50A4656
:103090001AB10123FE4C236002E00023FC4C2360A4
:1030A000002116E00023FA4C3434236000F0800342
:1030B0001BB10123241D236003E00023F44C3834AA
:1030C00023600123F24C343423604306180E4B1C5A
:1030D000D9B20829E6DB0123ED4C236010BD30B5E1
:1030E00000241CE004F1B001C8B20021FFF7CEFFBC
:1030F00000210846FFF7CAFF00211020FFF7C6FF96
:10310000002508E0E34901EBC501085D0121FFF757
:10311000BDFF681CC5B2802DF4DB601CC4B2082C56
:10312000E0DB30BD00B500218D20FFF7AFFF0021AF
:103130001420FFF7ABFF0021AF20FFF7A7FF00BD72
:1031400000B500218D20FFF7A1FF00211020FFF71F
:103150009DFF0021AE20FFF799FF00BD30B5002490
:103160000CE0002506E00020CA4901EBC501085526
:10317000681CC5B2802DF6DB601CC4B2082CF0DBE5
:10318000FFF7ADFF30BDF0B5144600267F2801DC07
:103190003F2900DDF0BD0B46CF1701EB5777FF103D
:1031A000C7F10707FAB2CF1701EB5777FF10A1EB72
:1031B000C707FDB2C5F107070123BB40DEB24CB122
:1031C000B44B03EBC0039B5C3343B24F07EBC00728
:1031D000BB5408E0AF4B03EBC0039B5CB343AD4F64
:1031E00007EBC007BB5400BFD4E72DE9F04F804682
:1031F0000C4615461E46A346A5F12000C5B2002781
:103200003EE00C2E07D105EB4500A34901EB800001
:1032100010F8079004E0A14800EB051010F80790A3
:103220004FF0000A26E009F0800028B12146404610
:10323000099AFFF7A8FF09E0099808B9012000E002
:103240000020024621464046FFF79DFF4FEA4960B5
:103250004FEA1069601CC4B2A4EB0B00B04205D168
:103260005C4608F1010000F0FF0806E00AF10100E9
:1032700000F0FF0ABAF1080FD5DB00BF781CC7B217
:10328000B742BEDBBDE8F08F10B50246012000E07A
:1032900050430B1EA1F10104E1B2F9D110BD2DE99B
:1032A000FF4F81B0074691461E460E9D4FF0000A23
:1032B000002439E0301B401EC1B20A20FFF7E4FFB2
:1032C000B9FBF0F00A21B0FBF1F201FB1208BAF1F0
:1032D000000F16D1701EA04213DDB8F1000F0ED101
:1032E0000120AB4605EBDB71491001FB0471009036
:1032F000C8B22B4620220299FFF777FF12E04FF069
:10330000010A0120AB4605EBDB71491001FB04719A
:103310000090C8B208F13001CAB22B460299FFF7FB
:1033200064FF00BF601CC4B2B442C3DB05B0BDE89B
:10333000F08F78B505460E46144618E07A2D03DD69
:10334000002506F11000C6B23A2E04DD0020054625
:103350000646FFF703FF0120009022780C23314638
:103360002846FFF742FF05F10800C5B2641C20782B
:103370000028E3D178BD08B501211020FEF706F83A
:1033800001210846FEF702F84EF20100ADF80000F8
:1033900010208DF8030002208DF802006946404895
:1033A000FDF7D2FC0120FDF728FE0020FDF75BFFB2
:1033B0000020FDF784FB0020FDF71FFE00203449AC
:1033C0003C3108606420FFF794F901203549C1F8C9
:1033D000BC010021AE20FFF759FE0021D520FFF7E8
:1033E00055FE00215020FFF751FE0021A820FFF7D5
:1033F0004DFE00213F20FFF749FE0021D320FFF7BB
:1034000045FE00210846FFF741FE00214020FFF75E
:103410003DFE00218D20FFF739FE00211420FFF72B
:1034200035FE00212020FFF731FE00210220FFF7AA
:103430002DFE0021A120FFF729FE0021C020FFF76B
:1034400025FE0021DA20FFF721FE00211220FFF7E0
:103450001DFE00218120FFF719FE0021EF20FFF75C
:1034600015FE0021D920FFF711FE0021F120FFF702
:103470000DFE0021DB20FFF709FE00213020FFF7C1
:1034800005FE0021A420FFF701FE0021A6200BE08D
:10349000800122429A02002026CF00089AD3000819
:1034A0000010014000002242FFF7F0FD0021AF2094
:1034B000FFF7ECFDFFF752FE08BD000000B587B036
:1034C00001214FF40170FDF761FF4FF40040FDF75B
:1034D000C1FE2020ADF8040000208DF8070001A9EE
:1034E0003648FDF731FC3648FDF7B6F8002002906B
:1034F0008DF80C008DF80D004FF460200490002032
:10350000059001208DF8180002A92D48FDF7CBF891
:1035100001212B48FDF7F3F82948FDF712F900BF08
:103520002748FDF713F90028FAD12548FDF718F9C7
:1035300000BF2348FDF719F90028FAD107B000BDF4
:1035400010B504460723012221461D48FDF743F923
:1035500001211B48FDF713F900BF02211848FDF7B0
:103560007FFA0028F9D01648FDF79CF910BD2DE927
:10357000F04F85B00520FFF7E3FF019008F052FD02
:103580004FF066320F4BCDE9020108F09BFD8046FB
:1035900000220D4B08F096FD064600220B4B08F06A
:1035A00091FD044600220A4B08F062FB824608F0B7
:1035B000F3FC0490049805B0BDE8F08F00080140CA
:1035C0000024014066660A40000026400000594081
:1035D0000000B04008B501211820FDF7D7FE0320F8
:1035E000ADF8000010208DF8030003208DF80200D4
:1035F00069463948FDF7A8FB3020ADF800001020DF
:103600008DF8030003208DF8020069463348FDF76A
:103610009BFB08BD30B589B005460C46FFF7DAFFC5
:1036200001214803FDF7B2FE01211020FDF7AEFE97
:103630004FF47070ADF8200018208DF8230003209F
:103640008DF8220008A92548FDF77EFBADF818503B
:10365000ADF814400020ADF81A00ADF8160005A929
:103660001F48FDF7CBFF6020ADF804000120ADF846
:1036700006000020ADF80A00ADF80C0001A91848BA
:10368000FDF7F9FF01A91648FEF737F801A914481C
:10369000FEF780F801A91248FEF7C7F8012110488B
:1036A000FEF714FB08210E48FEF734FC08210C48F5
:1036B000FEF739FC08210A48FEF742FC08210848B9
:1036C000FEF747FC01210648FEF7F4FB0121044800
:1036D000FEF7F0FA09B030BD000C014000100140C7
:1036E0000034014000B587B001210846FDF74EFEC9
:1036F00001210846FDF757FE01210420FDF746FE93
:1037000001210820FDF742FE0121C848FDF7EDFB2D
:103710004FF40040ADF8000004208DF80300694626
:10372000C348FDF711FB0820ADF8000004208DF818
:1037300003006946BF48FDF707FB04A8FEF78AFAB5
:103740000020ADF810004FF6FF70ADF81400002017
:10375000ADF81600ADF8120004A94FF08040FDF757
:103760004DFF00231A4603214FF08040FEF755FB22
:1037700001A8FEF782FA0A20ADF80C0001A9400763
:10378000FEF7CFF901218807FEF75AFD0122114605
:103790009007FEF7AAFA00214FF08040FEF71EFDC9
:1037A00001218807FEF786FA07B000BD00B587B093
:1037B00001210220FDF7F7FD01210420FDF7E6FDC0
:1037C000C020ADF8000004208DF803006946984839
:1037D000FDF7BAFA04A8FEF73DFA0020ADF8100094
:1037E0004FF6FF70ADF814000020ADF81600ADF8EC
:1037F000120004A99048FDF701FF00231A46032197
:103800008D48FEF70AFB01A8FEF737FA0A20ADF84B
:103810000C0001A98848FEF784F901218648FEF7CB
:103820000FFD012211468448FEF75FFA002182480D
:10383000FEF7D4FC01218048FEF73CFA07B000BD3A
:1038400000B587B001210420FDF7ADFD012108205E
:10385000FDF79CFDC020ADF8000004208DF80300AA
:1038600069467448FDF770FA04A8FEF7F3F90020E2
:10387000ADF810004FF6FF70ADF814000020ADF861
:103880001600ADF8120004A96C48FDF7B7FE00233E
:103890001A4603216948FEF7C0FA01A8FEF7EDF9C0
:1038A0000A20ADF80C0001A96448FEF73AF901219D
:1038B0006248FEF7C5FC012211466048FEF715FA82
:1038C00000215E48FEF78AFC01215C48FEF7F2F910
:1038D00007B000BD00B587B001210820FDF763FDEA
:1038E00001210420FDF752FD0320ADF80000042063
:1038F0008DF8030069464E48FDF726FA04A8FEF746
:10390000A9F90020ADF810004FF6FF70ADF81400D3
:103910000020ADF81600ADF8120004A94848FDF7E4
:103920006DFE00231A4603214548FEF776FA01A8EA
:10393000FEF7A3F90A20ADF80C0001A94048FEF7F4
:10394000F0F801213E48FEF77BFC012211463C487D
:10395000FEF7CBF900213A48FEF740FC0121384838
:10396000FEF7A8F907B000BD0146022906D00329D9
:103970000DD0042914D0052924D11AE04FF080423B
:10398000928C10B200224FF080439A841CE02A4AA5
:103990002432128810B20022274B24331A8013E0FD
:1039A000264A2432128810B20022244B24331A8073
:1039B0000AE0234A2432128810B20022204B24331A
:1039C0001A8001E0002000BF00BF70474FF0804028
:1039D000008A4FF08040008A20F001004FF08041C3
:1039E000088270471448103000881348103000884F
:1039F00020F0010010491031088070470F48103046
:103A000000880E481030008820F001000B4910316A
:103A1000088070470A481030008809481030008834
:103A200020F001000649103108807047000118009D
:103A300000080140000C0140000400400008004064
:103A4000000C004008B501210820FDF79FFC4FF451
:103A50004060ADF8000010208DF8030003208DF8C1
:103A600002006946F748FDF76FF908BD10B5F54843
:103A7000001D006820F47040F249091D08600846E6
:103A8000006840F4405008600120EF490860EF48AA
:103A9000D0F82C0108B9002010BD0120EA49091F07
:103AA0000860FEF702FE0020E849C1F8AC01E648D4
:103AB0008038006808B10020EEE70120FEF7F5FD30
:103AC0000020E149091F08600120E5E710B5DD4845
:103AD000001D006820F47040DA49091D086008469E
:103AE000006840F4405008600020D749091F086072
:103AF000D649C1F8AC010120FEF7D7FD0120D2491B
:103B0000091F0860D149C1F8AC01FEF7CEFD10BD18
:103B100010B50024CB48001D006820F47040C9494E
:103B2000091D08600846006840F400400860012054
:103B3000C5490860FEF7B9FD0120C449C1F8A801D4
:103B4000FEF7B3FD0AE0601CC4B2322C03DDFFF7C0
:103B5000BDFF002010BD0120FEF7A7FDBA48803848
:103B600000680028EFD1B849091F08600120F1E77B
:103B700010B50020B449091F0860B248001D006854
:103B800020F47040AF49091D08600846006840F401
:103B9000405008600020AD49C1F8AC010120FEF79B
:103BA00084FD0120A849091F0860FEF77EFD002062
:103BB000A649C1F8A80110BD10B50020A249091FEF
:103BC0000860A048001D006820F470409D49091D50
:103BD00008600846006840F44050086001209B4996
:103BE000C1F8AC01FEF761FD01209749091F08608B
:103BF000FEF75BFD00209549C1F8A80110BD70B526
:103C000004469048001D006820F470408D49091D4D
:103C100008600846006840F44050086000208A4967
:103C2000091F0860002516E0E00987490860600662
:103C3000040E0120FEF739FD01208449C1F8A801D6
:103C4000FEF733FD00208049091F08600120FEF7C0
:103C50002CFD681CC5B2082DE6DB70BD2DE9F041D6
:103C600005460E4617469846FFF700FF10B901209B
:103C7000BDE8F0816906080EFFF7C1FFFFF748FFB6
:103C800018B9FFF723FF0120F2E73046FFF7B7FF2F
:103C9000FFF73EFF00240BE018F80400FFF7AFFF2A
:103CA000FFF736FF18B9FFF711FF0020E0E7641CAB
:103CB000BC42F1DBFFF70AFF0020D9E770B50546EB
:103CC00000246048001D006820F470405D49091D13
:103CD00008600846006840F400400860002617E0CD
:103CE00000205949091F08600220FEF7DEFC012070
:103CF0005649C1F8A8016006040E53488038006890
:103D000008B1601CC4B20220FEF7CFFC701CC6B222
:103D1000082EE5DB15B1FFF72BFF01E0FFF74CFFA5
:103D2000204670BD2DE9F04106460F4614461D465B
:103D3000FFF79CFE10B90120BDE8F0817106080E66
:103D4000FFF75DFFFFF7E4FE18B9FFF7BFFE0120A4
:103D5000F2E73846FFF753FFFFF7DAFEFFF786FE7C
:103D6000012101EB4601C8B2FFF749FFFFF7D0FE82
:103D70000DE0012C04D10020FFF7A0FF287003E024
:103D80000120FFF79BFF28706D1C601EC4B2002C41
:103D9000EFD1FFF79BFE0020CEE770B505460E463B
:103DA0000024FFF763FE2846FFF729FF641CFFF796
:103DB000AFFE3046FFF723FF641CFFF7A9FEFFF7B5
:103DC00055FE691CC8B2FFF71AFF641CFFF7A0FE7E
:103DD0000020FFF773FF0446FFF778FE204670BD12
:103DE0002DE9F0410746884615461E460024FFF798
:103DF0003DFE3846FFF703FFFFF78AFE4046FFF718
:103E0000FEFEFFF785FEFFF731FE791CC8B2FFF713
:103E1000F6FEFFF77DFE00BF0DE0681EA04204D055
:103E20000120FFF74BFF305503E00020FFF746FF6E
:103E30003055601CC4B2AC42EFDBFFF747FE2046B2
:103E4000BDE8F081000C0140AC812142008021429C
:103E50002DE9F04180460D4616461F460024FFF727
:103E600005FE4046FFF7CBFEFFF752FE2846FFF760
:103E7000C6FEFFF74DFE00BF06E0385DFFF7BFFE50
:103E8000FFF746FE601CC4B2B442F6DBFFF71EFE2D
:103E90000120BDE8F08170B505460E461446314656
:103EA0002846FFF77AFF2070012070BD37B5044621
:103EB0000D4602AB012229462046FFF7C9FF3EBD51
:103EC0002DE9F8430746884614461D46089E6A4673
:103ED00041463846FFF7DFFF28B3601CFF2101FA97
:103EE00000F0C4F108012944491EFF220A41104391
:103EF00000F0FF09C5F1080006FA00F0C6B2C4F1EF
:103F0000070006419DF8000000EA090000909DF8B6
:103F10000000304300909DF8002041463846FFF7EE
:103F2000C5FFBDE8F8830020FBE7F8B506460F465D
:103F300014461D466A4639463046FFF7ACFF2DB1A0
:103F40000120A0409DF80010084305E00120A0409A
:103F50009DF8001021EA0000C0B200909DF80020FA
:103F600039463046FFF7A2FFF8BD00001FB501211A
:103F70000846FDF70BFA01210820FDF707FA4FF478
:103F80000040ADF80C0048208DF80F0003A912483E
:103F9000FCF7DAFE0F210120FCF7ECFF4FF40040A4
:103FA000019000208DF808000C208DF809000120F8
:103FB0008DF80A0001A8FCF7E7FD28208DF8000025
:103FC00001208DF801008DF802008DF8030068468D
:103FD000FCF7D9FA1FBD0000000C0140964908808B
:103FE00000BF9549091F098801F040010029F8D058
:103FF000704710B586B0044601210846FDF7C6F9A2
:1040000001211020FDF7C2F901218804FDF7CBF949
:1040100001218A48FCF769FF4FF48060ADF8140075
:1040200003208DF8160018208DF8170005A9844884
:10403000FCF78AFE4FF40060ADF8140004208DF800
:10404000170005A97E48FCF77FFE27208DF80000A9
:1040500000208DF8010001208DF802008DF803008A
:104060006846FCF790FA01940020ADF80800ADF81E
:104070000A00ADF80C00ADF810000C20ADF80E00F1
:1040800001A96D48001FFEF736F9012240F22551C3
:104090006948001FFEF7C7F901216748001FFEF7B6
:1040A000B6F906B010BD10B540F225516248001FA8
:1040B000FEF79EFA002841D06248007850B9624865
:1040C0000078401CC0B2604908700A2802DD012057
:1040D0005C49087058480088C4B2204608F0E6FCE5
:1040E0005A4908605A48007868B95A480078FE284A
:1040F00009D159480078FF2805D10120544908709A
:104100000020564908705248007801280FD15448C1
:1041100052490978445451480078401C4F4908706E
:1041200008460078082802D100204949087049480B
:104130000078494908704748047000BF002010BD4E
:10414000F0B548480068002801DD002206E0454837
:104150000068002801DA022200E0012242480068DB
:10416000002801DD002306E03F480068002801DA4E
:10417000022300E001233D480068002801DD0024FF
:1041800006E03A480068002801DA022400E0012431
:1041900037480068002801DD002506E03448006843
:1041A000002801DA022500E001253248808800F568
:1041B000004086B2FF20FFF711FFFE20FFF70EFF41
:1041C00028490F68002F01DB394600E07942C8B268
:1041D000FFF704FF1046FFF701FF23490F68002F88
:1041E00001DB394600E07942C8B2FFF7F7FE184616
:1041F000FFF7F4FE1D490F68002F01DB394600E090
:104200007942C8B2FFF7EAFE2046FFF7E7FE1849F9
:104210000F68002F01DB394600E07942C8B2FFF792
:10422000DDFE2846FFF7DAFE3012FFF7D7FEF0B2C8
:10423000FFF7D4FEF0BD0000044800401000140059
:1042400000100140780000202D01002060000020B7
:104250007A0000202B0100202C0100202A010020E0
:104260006F000020080000200C000020100000203B
:10427000140000202C0200202DE9F84304460D46CE
:1042800016461F46DDF820904FF0000814B10DB11E
:1042900006B117B90120BDE8F883601EC4B2681EDC
:1042A000C5B2701EC6B2781E87B201210846FDF75E
:1042B0006DF801210820FDF769F801214806FDF796
:1042C00072F801214FF4EA10FCF70FFE4FF4007072
:1042D000ADF8000003208DF8020018208DF80300CF
:1042E0006946FE48FCF730FD4FF48070ADF80000E1
:1042F00048208DF803006946F848FCF725FD0020AA
:10430000F74908600846006840F00100086008E0CE
:1043100008F101001FFA80F8B8F1640F01DD0220F6
:10432000B9E7EF48001D006800F001000028EFD059
:10433000EB480068EA4908600846006808600846DB
:10434000006808600846006840F0100008600846F1
:10435000006808600846006808600020E0491C31D9
:1043600008600846006840EA8970086008460068EE
:1043700040EA046008600846006840EA05500860AA
:104380000846006840EA064008600846006838436E
:104390000860D348006820F00100D149086009E0B6
:1043A00008F101001FFA80F84FF6F070804501DD3A
:1043B000032070E7CA48001D006800F001000028D3
:1043C000EED1C848006840F00100C6490860C54801
:1043D0001C30006820F00100C2491C310860C1484F
:1043E0000C30006840F00100BE490C310860BD4847
:1043F000001D0068BB49091D0860BA4814300068F8
:10440000B849143108600020B649403108600021E5
:10441000B44844300160B3481C30006840F00100EB
:10442000B0491C310860AF4800680020AD49086001
:10443000AB481430006840F00200A949143108600C
:104440000223142200210120FEF7F0FB002022E7C6
:10445000F0B505460E46059CA1480830006800F0FE
:10446000806008B1002111E09D480830006800F02C
:10447000006008B1012109E099480830006800F0A7
:10448000805008B1022101E0FF20F0BD00279548CF
:10449000803800EB011007601EB9C5F30A056D05F1
:1044A00002E025F06045ED008E48803800EB0110F9
:1044B000006828438B4F803F07EB0117386089481D
:1044C000803800EB0110006840EA86078548803894
:1044D00000EB011007608348803800EB0110006892
:1044E00040EA42077F48803800EB0110076003F084
:1044F0000F037C48803800EB0110406820F00F0764
:104500007848803800EB011047607648803800EB2F
:10451000011040681843734F803F07EB0117786024
:10452000E0790006A77940EA0740677940EA072763
:10453000207907436B48803800EB0110C760E078B2
:104540000006A77840EA0740677840EA0720277806
:104550003843644F803F07EB0117B86061488038EB
:1045600000EB0110006840F001075E48803800EB66
:1045700001100760084688E70146002021B10129A3
:1045800016D002293CD127E0554A0832126802F0C1
:1045900001021043524A0832126802F0020210432C
:1045A0004F4A0832126802F0806240EA126029E045
:1045B0004B4A0832126802F001021043484A08329E
:1045C000126802F002021043454A0832126802F0F3
:1045D000006240EA526015E0414A0832126802F077
:1045E000010210433E4A0832126802F002021043F0
:1045F0003B4A0832126802F0805240EA926001E0C1
:10460000052000BF00BF7047014629B934480C306F
:10461000006800F003007047012905D130481030D0
:10462000006800F00300F6E70020F4E7F0B5DDE9EC
:1046300005542C4E503E06EB0016366806F0040674
:10464000167016783EB9274E503E06EB00163668B7
:10465000760D0E6006E0234E503E06EB00163668DF
:10466000F6080E601F4E503E06EB0016366806F048
:1046700002061E701B4E503E06EB0016766806F0D2
:104680000F062E70174E503E06EB0016B6682670C9
:10469000144E503E06EB0016B668360A6670114E90
:1046A000503E06EB0016B668360CA6700D4E503E16
:1046B00006EB0016B668360EE6700A4E503E06EB64
:1046C0000016F6682671074E503E06EB0016F66897
:1046D000360A6671034E503E06E00000000C0140B1
:1046E000006400400066004006EB0016F668360CD9
:1046F000A671C74E06EB0016F668360EE67130B9A5
:10470000C44E366846F02006C24F3E6009E00128DC
:1047100007D1C04E361D366846F02006BD4F3F1DFE
:104720003E60F0BD10B58AB0BBA103C9CDE904015C
:1047300002A806A907AB08AACDE9001009A9002024
:10474000FFF774FF00240FE0072C04D102A8005DDE
:10475000B34908700AE002A8005D04A9095D884217
:1047600000D003E0601CC4B2072CEDDD00BF40F2B6
:1047700021110998884207D1A948007820B1A94899
:1047800002990160039941600AB010BDF8B5054671
:104790000E46002433460022114640F20160009587
:1047A000FFF756FE074601E0601C84B23846FFF76B
:1047B000E3FE072803D040F6FF708442F4DB40F6A6
:1047C000FF70844201DB0120F8BD0020FCE710B53A
:1047D00086B004460020FFF717FF10B9002006B08E
:1047E00010BD02A803AB04AA05A9CDE9000400206E
:1047F000FFF71CFF0598122805D19DF8100010B98D
:104800009DF80C0008B1002002909DF80800E6E732
:10481000F8B505460E46002433460022114640F204
:1048200001700095FFF714FE074601E0601C84B29A
:104830003846FFF7A1FE072803D040F6FF708442F8
:10484000F4DB40F6FF70844201DB0120F8BD00205C
:10485000FCE7F8B506460D46002408230022114661
:1048600030460095FFF7F4FD074601E0601C84B276
:104870003846FFF781FE072803D040F6FF708442D8
:10488000F4DB40F6FF70844201DB0120F8BD00201C
:10489000FCE72DE9FC5F64480068002801DD002486
:1048A00006E061480068002801DA022400E00124E3
:1048B0005E480068002801DD002506E05B480068CE
:1048C000002801DA022500E0012559480068002887
:1048D00001DD002606E056480068002801DA0226BD
:1048E00000E0012653480068002801DD002706E0AB
:1048F00050480068002801DA022700E001274E49ED
:104900004E48006808F01AF94D49009007F016FF6C
:10491000019008F093F81FFA80F847494948006869
:1049200008F00CF94649009007F008FF019008F0E4
:1049300085F81FFA80F940494348006808F0FEF8FE
:104940003F49009007F0FAFE019008F077F81FFA4F
:1049500080FA3E48808800F500401FFA80FB3C4802
:10496000007808B9012000E00020394908700846A5
:104970000078C8B94FEA28203649087081F80180CC
:104980004FEA2920887081F803904FEA2A200871A5
:1049900081F805A04FEA2B20887181F807B04FF409
:1049A0008070FFF756FF30E01F490868002801DBE0
:1049B000014600E04142274A1170104644701B49ED
:1049C0000868002801DB014600E04142214A91705D
:1049D0001046C57016490868002801DB014600E052
:1049E00041421C4A1171104646711249086800285C
:1049F00001DB014600E04142164A91711046C77141
:104A0000014640F20110FFF724FFBDE8FC9F0000C3
:104A1000B06500400C6400400A0C0F13181E2500FE
:104A20007700002067000020080000200C00002014
:104A300010000020140000200000C8429000002058
:104A40000060EA4694000020980000202C0200201C
:104A50002E0100207D000020FD48806940F0040008
:104A6000FB4988610846806940F010008861F94878
:104A7000006820F47060F74908600846006840F458
:104A800000600860F248806940F01000F0498861D9
:104A9000F04800684FF2F0018843EE49086008468C
:104AA000006843F230010843EA490860EA480068B8
:104AB00020F47020E84908600846006840F440305F
:104AC0000860704738B50446012000900020E34993
:104AD0004870012000902DE0BDF80000204018B182
:104AE0000120DF49086002E00020DD490860012064
:104AF000DC4908600520FDF7D8FD0020DA49C1F83F
:104B000090010520FDF7D1FD0120D749C1F89001A2
:104B1000D648D0F8080130B1D0484078BDF8001030
:104B20000843CE494870BDF800004FF6FF7101EA16
:104B300040000090BDF80000FF28CDDD1020FDF7FB
:104B4000B4FD38BD10B50020C54908310860C8491A
:104B50000878FFF7B7FFC6494878FFF7B3FF012091
:104B6000C249C1F88C01BD484078732801D10020AA
:104B700010BD0120FCE71CB5002001900120009031
:104B80000020B74908310860B9490878FFF79AFF53
:104B9000B7494878FFF796FF0220019035E00120E1
:104BA000009026E00120AF4908600520FDF77DFD5B
:104BB0000020AD49C1F890010520FDF776FD0120E8
:104BC000A949C1F89001A948D0F8080150B1A348FB
:104BD0009DF80410405CBDF8001008439F499DF803
:104BE00004208854BDF800004FF6FF7101EA400030
:104BF0000090BDF80000FF28D4DD1020FDF755FD22
:104C00009DF80400401CC0B201909DF804000928E2
:104C1000C5DB01209249083108601CBD002004E07A
:104C200000218E4A1154411CC8B20928F8DB704794
:104C300010B5FFF7F3FFFFF79EFF8848C07887495C
:104C4000097940EA01208B49088000240FE08A4856
:104C500010F81400401E012101FA00F0854909886E
:104C6000084010B9601CC0B210BD601CC4B2102C4A
:104C7000EDDB0020F8E701467848405C704770B5EE
:104C800005460C4600207649083108601020FDF7E3
:104C90000CFD0120FFF716FF4220FFF713FF002055
:104CA000FFF710FF2846FFF70DFF2046FFF70AFF2A
:104CB0000020FFF707FF0020FFF704FF0020FFF7A9
:104CC00001FF0020FFF7FEFE01206849C1F88C01BA
:104CD0001020FDF7EAFC70BD10B5002060490831D6
:104CE00008601020FDF7E1FC0120FFF7EBFE4220F9
:104CF000FFF7E8FE0020FFF7E5FE0020FFF7E2FEE9
:104D00000020FFF7DFFE01205849C1F88C01102078
:104D1000FDF7CBFC10BD10B50020514908310860EB
:104D20001020FDF7C2FC0120FFF7CCFE4320FFF767
:104D3000C9FE0020FFF7C6FE0120FFF7C3FE0020DA
:104D4000FFF7C0FE0020FFF7BDFE0020FFF7BAFE10
:104D50000020FFF7B7FE0020FFF7B4FE0120434913
:104D6000C1F88C011020FDF7A0FC10BD10B500208B
:104D70003B49083108600120FFF7A4FE4420FFF7FB
:104D8000A1FE0020FFF79EFE0120FFF79BFE0320FF
:104D9000FFF798FE0020FFF795FE0020FFF792FE38
:104DA0000020FFF78FFE0020FFF78CFE01202F4927
:104DB000C1F88C011020FDF778FC10BD10B5002063
:104DC0002749083108601020FDF76FFC0120FFF72C
:104DD00079FE4D20FFF776FE0020FFF773FE0020DE
:104DE000FFF770FE0120FFF76DFE01201F49C1F89B
:104DF0008C011020FDF759FC10BD10B5002018499A
:104E0000083108601020FDF750FC0120FFF75AFE22
:104E10004320FFF757FE0020FFF754FE0020FFF766
:104E200051FE5A20FFF74EFE5A20FFF74BFE5A2044
:104E3000FFF748FE5A20FFF745FE5A20FFF742FED3
:104E400001200A49C1F88C011020FDF72EFC10BD8D
:104E50000010024000100140000801409A060020A6
:104E6000840122429001214200002142000022429E
:104E700032010020300100203401002010B5FFF77E
:104E80002BFFFFF729FFFFF727FFFFF744FFFFF78F
:104E90006DFFFFF7B2FF10BD2DE9F04704460E4647
:104EA0001546FE49284607F049FE824684F000492F
:104EB0003146484607F042FC8046514607F046FF1F
:104EC000074607F09FFDF6490860F449284607F0B9
:104ED00035FE80463146204607F030FC814641468B
:104EE00007F034FF074607F08DFDEE490860EB49F7
:104EF000284607F023FE824684F0004931464846A2
:104F000007F01CFC8046514607F018FC074607F0E6
:104F100079FDE5490860E149284607F00FFE804623
:104F20003146204607F00AFC8146414607F006FC60
:104F3000074607F067FDDD490860BDE8F0872DE909
:104F4000F04704460E461546D449284607F0F6FDBC
:104F5000824684F000493146484607F0EFFB804620
:104F6000514607F0F3FE074607F04CFDD0490860B4
:104F7000CA49284607F0E2FD80463146204607F040
:104F8000DDFB8146414607F0E1FE074607F03AFDAA
:104F9000C8490860C149284607F0D0FD824684F020
:104FA00000493146484607F0C9FB8046514607F0A4
:104FB000C5FB074607F026FDBF490860B7492846EC
:104FC00007F0BCFD80463146204607F0B7FB81461E
:104FD000414607F0B3FB074607F014FDB7490860E8
:104FE000BDE8F08770B504460020002C06DD2518CA
:104FF000B34E35800025B34E356007E004F5E1552A
:105000002D1AAF4E35800125AE4E3560002909DDE1
:10501000C1F5E1552D1AAA4E361D35800125AA4E3F
:10502000356007E04D420544A54E361D358000250C
:10503000A54E3560002A0ADDC2F5E1552D1AA04EB5
:105040000836358001259F4E361D356008E05542F3
:1050500005449B4E0836358000259A4E361D356036
:10506000002B08DD1D18964E0C3635800025964E17
:10507000361D356009E003F5E1552D1A904E0C36CA
:1050800035800125904E361D356070BD8F49096809
:105090004242914202DA41428C4A11608B490968CE
:1050A000814201DD8949086089490968424291428B
:1050B00002DA4142864A116085490968814201DD70
:1050C00083490860834909684242914202DA4142B9
:1050D000804A11607F490968814201DD7D4908608D
:1050E0007D4909684242914202DA41427A4A11609E
:1050F00079490968814201DD7749086070472DE9E7
:10510000F05F04460D46601B74490860084600685D
:1051100007F0B4FC834672480168584607F00EFD5C
:1051200080466E4909686F4A1268881A07F0A6FC23
:1051300083466D480168584607F000FD81464146A8
:1051400007F0FCFA07466948006807F097FC8246BA
:10515000394607F0F3FA064607F054FC6349086045
:1051600008460068B0F5E15F02DD4FF4E1500860E9
:105170005E48006810F5E15F02DA5D485B4908604F
:10518000564800685749086058480068BDE8F09FD5
:105190002DE9F05F04460D46601B5649086008463D
:1051A000006807F06BFC83464D480168584607F0DD
:1051B000C5FC80464F4909684F4A1268881A07F0B3
:1051C0005DFC834648480168584607F0B7FC8146B5
:1051D000414607F0B3FA07464848006807F04EFC1E
:1051E0008246394607F0AAFA064607F00BFC434907
:1051F000086008460068B0F5E15F02DD4FF4E15059
:1052000008603E48006810F5E15F02DA38483B4923
:105210000860384800683849086038480068BDE8C8
:10522000F09F2DE9F05F04460D46601B344908608D
:105230000846006807F022FC834629480168584662
:1052400007F07CFC80462E4909682E4A1268881AAD
:1052500007F014FC834624480168584607F06EFCAA
:105260008146414607F06AFA07462748006807F07A
:1052700005FC8246394607F061FA064607F0C2FB94
:105280002149086008460068B0F5E15F02DD4FF48F
:10529000E15008601C48006838E000001058393EB2
:1052A0004C00002050000020540000205800002036
:1052B000280000202C0000203000002034000020B6
:1052C0003434014090012242808121423C00002080
:1052D00040000020440000204800002090010020F1
:1052E000B800002098010020B400002094010020A4
:1052F000E0E3FFFF840100208C01002088010020F2
:1053000078010020800100207C01002010F5E15F81
:1053100002DAFE48FE490860FE480068FE4908605F
:10532000FB480068BDE8F09F2DE9F05F04460D469C
:10533000601BFA4908600846006807F09FFB834637
:10534000F7480168584607F0F9FB8046F3490968B9
:10535000F44A1268881A07F091FB8346F248016804
:10536000584607F0EBFB8146414607F0E7F9074650
:10537000EE48006807F082FB8246394607F0DEF906
:10538000064607F03FFBE949086008460068B0F5AB
:10539000E15F02DD4FF4E1500860E448006810F579
:1053A000E15F02DAD948E1490860DC480068DD497C
:1053B0000860DE480068BDE8F09F30B5DC4C24682A
:1053C0004542AC4202DA4442D94D2C60D84C2468A4
:1053D000844201DDD64C2060D64C24684D42AC425C
:1053E00002DA4C42D34D2C60D24C24688C4201DD51
:1053F000D04C2160D04C24685542AC4202DA544271
:10540000CD4D2C60CC4C2468944201DDCA4C226006
:10541000CA4C24685D42AC4202DA5C42C74D2C6043
:10542000C64C24689C4201DDC44C236030BD01465B
:10543000002901DA484200E0084670472DE9F04FA4
:1054400089B0BF48006807F04DF98246BD480CC8D6
:10545000504607F05DF804460D46BB48006807F06B
:1054600041F98246B9480CC8504607F051F8064643
:105470000F46B748006807F035F98246B5480CC8B2
:10548000504607F045F880468946002213462046DC
:10549000294606F045FD0DD1002213463046394617
:1054A00006F03EFD06D1002213464046494606F06E
:1054B00037FD26D042464B464046494606F002FE9E
:1054C00032463B46CDE904013046394606F0FAFD46
:1054D00022462B46CDE900012046294606F0F2FD82
:1054E0008246DDE9002306F007FBCDE90201DDE994
:1054F000042306F001FBCDE9060106F0A5FA964A61
:1055000003C2002213462046294606F009FD0DD1AC
:10551000002213463046394606F002FD06D100222D
:1055200013464046494606F0FBFC12D04046494629
:1055300006F0B0FA82463046394606F0ABFA8346AA
:105540002046294606F0A6FA524659460790FFF72C
:10555000F6FC82480068FFF76AFF81490968484302
:10556000019006F05FFDCDE902017B480CC802986E
:1055700006F07EFB824606F00FFD07907948006832
:10558000FFF755FF7649096800FB01FA504606F01F
:1055900049FDCDE9000170480CC8009806F068FB91
:1055A000CDE9020106F0F8FC06906F480068FFF7AD
:1055B0003EFF6B4909684843019006F033FDCDE991
:1055C000020165480CC8029806F052FB824606F0BC
:1055D000E3FC059065480068FFF729FF604909680A
:1055E0004843019006F01EFD82465B480CC85046B9
:1055F00006F03EFBCDE9020106F0CEFC049005A9C1
:105600000EC9FFF7DAFE4E48006807F06BF84D4A06
:1056100003C24D48006807F065F84C4A03C24C4885
:10562000006807F05FF84B4A03C209B0BDE8F08F8D
:105630002DE9F04704460D46601B07F01FFA4C4960
:105640000860084601684B48006807F077F8494948
:10565000086049494748006807F03CFB02D24748C8
:105660004449086046494348006807F033FA02D2CB
:10567000444840490860444801683D48006807F0D4
:1056800065FB804641480168404607F057FA0646E8
:105690003F494048006807F0BFF882463548016836
:1056A000504607F04BFA8046314801683A48006896
:1056B00007F044FA8146414607F040F80746314674
:1056C00007F03CF835490860294800682E49086011
:1056D0003248006807F096F9BDE8F0872DE9F047F9
:1056E00004460D46601B07F0C9F92D4908600846BD
:1056F00001682C48006807F021F82A4908601E4913
:105700002848006807F0E6FA51D24DE0E0E3FFFFD9
:105710007C01002078010020800100206C01002025
:10572000B800002074010020B400002070010020A7
:105730003C000020400000204400002048000020E1
:105740009C000020E0010020A0000020E8010020D3
:10575000A4000020F0010020F80100203400002007
:10576000BC000020300000202C0000202800002079
:10577000CC010020D40100200050C34700401C464B
:105780000050C3C700401CC6D8010020B000002054
:105790000000C842AC000020A8000020D00100207A
:1057A000BC010020C4010020FD48FE490860FE49FC
:1057B000FC48006807F08EF902D2FC48F9490860FD
:1057C000FB480168FB48006807F0C0FA8046FA48C9
:1057D0000168404607F0B2F90646F849F848006803
:1057E00007F01AF88246EF480168504607F0A6F91C
:1057F0008046F0480168F348006807F09FF9814649
:10580000414606F09BFF0746314606F097FFEE49FA
:105810000860E8480068E6490860EB48006807F05F
:10582000F1F8BDE8F0872DE9F04704460D46601B0E
:1058300007F024F9E549086008460168E448006873
:1058400006F07CFFE2490860E249E148006807F0A1
:1058500041FA02D2D248DE490860D349DC480068E8
:1058600007F038F902D2D148D9490860DA4801680E
:10587000D648006807F06AFA8046CF48016840467B
:1058800007F05CF90646CD49CD48006806F0C4FF34
:105890008246CF480168504607F050F98046CB4811
:1058A0000168C848006807F049F98146414606F09A
:1058B00045FF0746314606F041FFC8490860C34826
:1058C0000068C5490860C548006807F09BF8BDE856
:1058D000F0872DE9F04704460D46601B07F0CEF82F
:1058E000BF49086008460168BE48006806F026FF08
:1058F000BC490860B749BB48006807F0EBF902D221
:10590000A748B8490860A849B648006807F0E2F817
:1059100002D2A648B3490860B3480168B04800689D
:1059200007F014FA8046A4480168404607F006F9DB
:105930000646A249A248006806F06EFF8246A948C2
:105940000168504607F0FAF88046A54801689D486E
:10595000006807F0F3F88146414606F0EFFE07467F
:10596000314606F0EBFEA14908609D4800689E495B
:1059700008609E48006807F045F8BDE8F0872DE90B
:10598000F04704464FF07C5A4FF00109002C71D1CA
:105990009748007809286ED2DFE800F07F051223CF
:1059A00030414E5F6E000020924908605146924897
:1059B000006806F0C3FE904908604FF001098BE0D3
:1059C00051468C48006806F0B9FE8A490860514685
:1059D0008948006806F0B2FE874908604FF0010967
:1059E0007AE051468348006806F0A8FE81490860C5
:1059F0000020814908604FF001096DE051467D4863
:105A0000006806F09BFE7B49086051467A480068B2
:105A100007F09CF9784908604FF001095CE000202C
:105A20007449086051467448006807F08FF972495C
:105A300008604FF001094FE051466E48006807F0DA
:105A400085F96C49086051466B48006807F07EF99B
:105A5000694908604FF001093EE051466548006819
:105A600007F074F9634908600020634908604FF04B
:105A7000010931E00EE110E051465E48006807F090
:105A800065F95C49086051465B48006806F056FEBF
:105A9000594908604FF001091EE04FF000095548D0
:105AA000006806F01FFE0746544A554B06F0E0F822
:105AB000054605F0EFFF4F4908604F48006806F0C3
:105AC00011FE07464D4A4E4B06F0D2F8054605F04A
:105AD000E1FF4949086000BF00BFB9F1000F23D1C1
